{
  "_format": "hh-sol-artifact-1",
  "contractName": "MyToken",
  "sourceName": "contracts/NFT.sol",
  "abi": [
    {
      "anonymous": false,
      "inputs": [
        {
          "indexed": false,
          "internalType": "address",
          "name": "previousAdmin",
          "type": "address"
        },
        {
          "indexed": false,
          "internalType": "address",
          "name": "newAdmin",
          "type": "address"
        }
      ],
      "name": "AdminChanged",
      "type": "event"
    },
    {
      "anonymous": false,
      "inputs": [
        {
          "indexed": true,
          "internalType": "address",
          "name": "owner",
          "type": "address"
        },
        {
          "indexed": true,
          "internalType": "address",
          "name": "approved",
          "type": "address"
        },
        {
          "indexed": true,
          "internalType": "uint256",
          "name": "tokenId",
          "type": "uint256"
        }
      ],
      "name": "Approval",
      "type": "event"
    },
    {
      "anonymous": false,
      "inputs": [
        {
          "indexed": true,
          "internalType": "address",
          "name": "owner",
          "type": "address"
        },
        {
          "indexed": true,
          "internalType": "address",
          "name": "operator",
          "type": "address"
        },
        {
          "indexed": false,
          "internalType": "bool",
          "name": "approved",
          "type": "bool"
        }
      ],
      "name": "ApprovalForAll",
      "type": "event"
    },
    {
      "anonymous": false,
      "inputs": [
        {
          "indexed": true,
          "internalType": "address",
          "name": "beacon",
          "type": "address"
        }
      ],
      "name": "BeaconUpgraded",
      "type": "event"
    },
    {
      "anonymous": false,
      "inputs": [
        {
          "indexed": false,
          "internalType": "uint8",
          "name": "version",
          "type": "uint8"
        }
      ],
      "name": "Initialized",
      "type": "event"
    },
    {
      "anonymous": false,
      "inputs": [
        {
          "indexed": true,
          "internalType": "address",
          "name": "previousOwner",
          "type": "address"
        },
        {
          "indexed": true,
          "internalType": "address",
          "name": "newOwner",
          "type": "address"
        }
      ],
      "name": "OwnershipTransferred",
      "type": "event"
    },
    {
      "anonymous": false,
      "inputs": [
        {
          "indexed": true,
          "internalType": "address",
          "name": "from",
          "type": "address"
        },
        {
          "indexed": true,
          "internalType": "address",
          "name": "to",
          "type": "address"
        },
        {
          "indexed": true,
          "internalType": "uint256",
          "name": "tokenId",
          "type": "uint256"
        }
      ],
      "name": "Transfer",
      "type": "event"
    },
    {
      "anonymous": false,
      "inputs": [
        {
          "indexed": true,
          "internalType": "address",
          "name": "implementation",
          "type": "address"
        }
      ],
      "name": "Upgraded",
      "type": "event"
    },
    {
      "inputs": [
        {
          "internalType": "address",
          "name": "to",
          "type": "address"
        },
        {
          "internalType": "uint256",
          "name": "tokenId",
          "type": "uint256"
        }
      ],
      "name": "approve",
      "outputs": [],
      "stateMutability": "nonpayable",
      "type": "function"
    },
    {
      "inputs": [
        {
          "internalType": "address",
          "name": "owner",
          "type": "address"
        }
      ],
      "name": "balanceOf",
      "outputs": [
        {
          "internalType": "uint256",
          "name": "",
          "type": "uint256"
        }
      ],
      "stateMutability": "view",
      "type": "function"
    },
    {
      "inputs": [
        {
          "internalType": "uint256",
          "name": "tokenId",
          "type": "uint256"
        }
      ],
      "name": "getApproved",
      "outputs": [
        {
          "internalType": "address",
          "name": "",
          "type": "address"
        }
      ],
      "stateMutability": "view",
      "type": "function"
    },
    {
      "inputs": [],
      "name": "initialize",
      "outputs": [],
      "stateMutability": "nonpayable",
      "type": "function"
    },
    {
      "inputs": [
        {
          "internalType": "address",
          "name": "owner",
          "type": "address"
        },
        {
          "internalType": "address",
          "name": "operator",
          "type": "address"
        }
      ],
      "name": "isApprovedForAll",
      "outputs": [
        {
          "internalType": "bool",
          "name": "",
          "type": "bool"
        }
      ],
      "stateMutability": "view",
      "type": "function"
    },
    {
      "inputs": [],
      "name": "name",
      "outputs": [
        {
          "internalType": "string",
          "name": "",
          "type": "string"
        }
      ],
      "stateMutability": "view",
      "type": "function"
    },
    {
      "inputs": [],
      "name": "owner",
      "outputs": [
        {
          "internalType": "address",
          "name": "",
          "type": "address"
        }
      ],
      "stateMutability": "view",
      "type": "function"
    },
    {
      "inputs": [
        {
          "internalType": "uint256",
          "name": "tokenId",
          "type": "uint256"
        }
      ],
      "name": "ownerOf",
      "outputs": [
        {
          "internalType": "address",
          "name": "",
          "type": "address"
        }
      ],
      "stateMutability": "view",
      "type": "function"
    },
    {
      "inputs": [],
      "name": "proxiableUUID",
      "outputs": [
        {
          "internalType": "bytes32",
          "name": "",
          "type": "bytes32"
        }
      ],
      "stateMutability": "view",
      "type": "function"
    },
    {
      "inputs": [],
      "name": "renounceOwnership",
      "outputs": [],
      "stateMutability": "nonpayable",
      "type": "function"
    },
    {
      "inputs": [
        {
          "internalType": "address",
          "name": "to",
          "type": "address"
        },
        {
          "internalType": "string",
          "name": "uri",
          "type": "string"
        }
      ],
      "name": "safeMint",
      "outputs": [],
      "stateMutability": "nonpayable",
      "type": "function"
    },
    {
      "inputs": [
        {
          "internalType": "address",
          "name": "from",
          "type": "address"
        },
        {
          "internalType": "address",
          "name": "to",
          "type": "address"
        },
        {
          "internalType": "uint256",
          "name": "tokenId",
          "type": "uint256"
        }
      ],
      "name": "safeTransferFrom",
      "outputs": [],
      "stateMutability": "nonpayable",
      "type": "function"
    },
    {
      "inputs": [
        {
          "internalType": "address",
          "name": "from",
          "type": "address"
        },
        {
          "internalType": "address",
          "name": "to",
          "type": "address"
        },
        {
          "internalType": "uint256",
          "name": "tokenId",
          "type": "uint256"
        },
        {
          "internalType": "bytes",
          "name": "data",
          "type": "bytes"
        }
      ],
      "name": "safeTransferFrom",
      "outputs": [],
      "stateMutability": "nonpayable",
      "type": "function"
    },
    {
      "inputs": [
        {
          "internalType": "address",
          "name": "operator",
          "type": "address"
        },
        {
          "internalType": "bool",
          "name": "approved",
          "type": "bool"
        }
      ],
      "name": "setApprovalForAll",
      "outputs": [],
      "stateMutability": "nonpayable",
      "type": "function"
    },
    {
      "inputs": [
        {
          "internalType": "bytes4",
          "name": "interfaceId",
          "type": "bytes4"
        }
      ],
      "name": "supportsInterface",
      "outputs": [
        {
          "internalType": "bool",
          "name": "",
          "type": "bool"
        }
      ],
      "stateMutability": "view",
      "type": "function"
    },
    {
      "inputs": [],
      "name": "symbol",
      "outputs": [
        {
          "internalType": "string",
          "name": "",
          "type": "string"
        }
      ],
      "stateMutability": "view",
      "type": "function"
    },
    {
      "inputs": [
        {
          "internalType": "uint256",
          "name": "tokenId",
          "type": "uint256"
        }
      ],
      "name": "tokenURI",
      "outputs": [
        {
          "internalType": "string",
          "name": "",
          "type": "string"
        }
      ],
      "stateMutability": "view",
      "type": "function"
    },
    {
      "inputs": [
        {
          "internalType": "address",
          "name": "from",
          "type": "address"
        },
        {
          "internalType": "address",
          "name": "to",
          "type": "address"
        },
        {
          "internalType": "uint256",
          "name": "tokenId",
          "type": "uint256"
        }
      ],
      "name": "transferFrom",
      "outputs": [],
      "stateMutability": "nonpayable",
      "type": "function"
    },
    {
      "inputs": [
        {
          "internalType": "address",
          "name": "newOwner",
          "type": "address"
        }
      ],
      "name": "transferOwnership",
      "outputs": [],
      "stateMutability": "nonpayable",
      "type": "function"
    },
    {
      "inputs": [
        {
          "internalType": "address",
          "name": "newImplementation",
          "type": "address"
        }
      ],
      "name": "upgradeTo",
      "outputs": [],
      "stateMutability": "nonpayable",
      "type": "function"
    },
    {
      "inputs": [
        {
          "internalType": "address",
          "name": "newImplementation",
          "type": "address"
        },
        {
          "internalType": "bytes",
          "name": "data",
          "type": "bytes"
        }
      ],
      "name": "upgradeToAndCall",
      "outputs": [],
      "stateMutability": "payable",
      "type": "function"
    }
  ],
  "bytecode": "0x60a06040523060805234801561001457600080fd5b5060805161298361004c600039600081816107a10152818161083701528181610959015281816109ef0152610aea01526129836000f3fe60806040526004361061016a5760003560e01c806370a08231116100cb578063a22cb4651161007f578063d204c45e11610059578063d204c45e146103b3578063e985e9c5146103d3578063f2fde38b1461041c57600080fd5b8063a22cb46514610353578063b88d4fde14610373578063c87b56dd1461039357600080fd5b80638129fc1c116100b05780638129fc1c1461030b5780638da5cb5b1461032057806395d89b411461033e57600080fd5b806370a08231146102d6578063715018a6146102f657600080fd5b80633659cfe6116101225780634f1ef286116101075780634f1ef2861461028057806352d1902d146102935780636352211e146102b657600080fd5b80633659cfe61461024057806342842e0e1461026057600080fd5b8063081812fc11610153578063081812fc146101c6578063095ea7b3146101fe57806323b872dd1461022057600080fd5b806301ffc9a71461016f57806306fdde03146101a4575b600080fd5b34801561017b57600080fd5b5061018f61018a366004612390565b61043c565b60405190151581526020015b60405180910390f35b3480156101b057600080fd5b506101b9610521565b60405161019b91906123fd565b3480156101d257600080fd5b506101e66101e1366004612410565b6105b3565b6040516001600160a01b03909116815260200161019b565b34801561020a57600080fd5b5061021e610219366004612445565b6105da565b005b34801561022c57600080fd5b5061021e61023b36600461246f565b610710565b34801561024c57600080fd5b5061021e61025b3660046124ab565b610797565b34801561026c57600080fd5b5061021e61027b36600461246f565b610934565b61021e61028e36600461258b565b61094f565b34801561029f57600080fd5b506102a8610add565b60405190815260200161019b565b3480156102c257600080fd5b506101e66102d1366004612410565b610ba2565b3480156102e257600080fd5b506102a86102f13660046124ab565b610c07565b34801561030257600080fd5b5061021e610ca1565b34801561031757600080fd5b5061021e610cb5565b34801561032c57600080fd5b5060c9546001600160a01b03166101e6565b34801561034a57600080fd5b506101b9610e58565b34801561035f57600080fd5b5061021e61036e3660046125d9565b610e67565b34801561037f57600080fd5b5061021e61038e366004612615565b610e72565b34801561039f57600080fd5b506101b96103ae366004612410565b610f00565b3480156103bf57600080fd5b5061021e6103ce36600461267d565b610f0b565b3480156103df57600080fd5b5061018f6103ee3660046126d5565b6001600160a01b039182166000908152606a6020908152604080832093909416825291909152205460ff1690565b34801561042857600080fd5b5061021e6104373660046124ab565b610f44565b60007fffffffff0000000000000000000000000000000000000000000000000000000082167f80ac58cd0000000000000000000000000000000000000000000000000000000014806104cf57507fffffffff0000000000000000000000000000000000000000000000000000000082167f5b5e139f00000000000000000000000000000000000000000000000000000000145b8061051b57507f01ffc9a7000000000000000000000000000000000000000000000000000000007fffffffff000000000000000000000000000000000000000000000000000000008316145b92915050565b60606065805461053090612708565b80601f016020809104026020016040519081016040528092919081815260200182805461055c90612708565b80156105a95780601f1061057e576101008083540402835291602001916105a9565b820191906000526020600020905b81548152906001019060200180831161058c57829003601f168201915b5050505050905090565b60006105be82610fd1565b506000908152606960205260409020546001600160a01b031690565b60006105e582610ba2565b9050806001600160a01b0316836001600160a01b0316036106735760405162461bcd60e51b815260206004820152602160248201527f4552433732313a20617070726f76616c20746f2063757272656e74206f776e6560448201527f720000000000000000000000000000000000000000000000000000000000000060648201526084015b60405180910390fd5b336001600160a01b038216148061068f575061068f81336103ee565b6107015760405162461bcd60e51b815260206004820152603d60248201527f4552433732313a20617070726f76652063616c6c6572206973206e6f7420746f60448201527f6b656e206f776e6572206f7220617070726f76656420666f7220616c6c000000606482015260840161066a565b61070b8383611035565b505050565b61071a33826110b0565b61078c5760405162461bcd60e51b815260206004820152602d60248201527f4552433732313a2063616c6c6572206973206e6f7420746f6b656e206f776e6560448201527f72206f7220617070726f76656400000000000000000000000000000000000000606482015260840161066a565b61070b83838361112f565b6001600160a01b037f00000000000000000000000000000000000000000000000000000000000000001630036108355760405162461bcd60e51b815260206004820152602c60248201527f46756e6374696f6e206d7573742062652063616c6c6564207468726f7567682060448201527f64656c656761746563616c6c0000000000000000000000000000000000000000606482015260840161066a565b7f00000000000000000000000000000000000000000000000000000000000000006001600160a01b03166108907f360894a13ba1a3210667c828492db98dca3e2076cc3735a920a3ca505d382bbc546001600160a01b031690565b6001600160a01b03161461090c5760405162461bcd60e51b815260206004820152602c60248201527f46756e6374696f6e206d7573742062652063616c6c6564207468726f7567682060448201527f6163746976652070726f78790000000000000000000000000000000000000000606482015260840161066a565b61091581611365565b604080516000808252602082019092526109319183919061136d565b50565b61070b83838360405180602001604052806000815250610e72565b6001600160a01b037f00000000000000000000000000000000000000000000000000000000000000001630036109ed5760405162461bcd60e51b815260206004820152602c60248201527f46756e6374696f6e206d7573742062652063616c6c6564207468726f7567682060448201527f64656c656761746563616c6c0000000000000000000000000000000000000000606482015260840161066a565b7f00000000000000000000000000000000000000000000000000000000000000006001600160a01b0316610a487f360894a13ba1a3210667c828492db98dca3e2076cc3735a920a3ca505d382bbc546001600160a01b031690565b6001600160a01b031614610ac45760405162461bcd60e51b815260206004820152602c60248201527f46756e6374696f6e206d7573742062652063616c6c6564207468726f7567682060448201527f6163746976652070726f78790000000000000000000000000000000000000000606482015260840161066a565b610acd82611365565b610ad98282600161136d565b5050565b6000306001600160a01b037f00000000000000000000000000000000000000000000000000000000000000001614610b7d5760405162461bcd60e51b815260206004820152603860248201527f555550535570677261646561626c653a206d757374206e6f742062652063616c60448201527f6c6564207468726f7567682064656c656761746563616c6c0000000000000000606482015260840161066a565b507f360894a13ba1a3210667c828492db98dca3e2076cc3735a920a3ca505d382bbc90565b6000818152606760205260408120546001600160a01b03168061051b5760405162461bcd60e51b815260206004820152601860248201527f4552433732313a20696e76616c696420746f6b656e2049440000000000000000604482015260640161066a565b60006001600160a01b038216610c855760405162461bcd60e51b815260206004820152602960248201527f4552433732313a2061646472657373207a65726f206973206e6f74206120766160448201527f6c6964206f776e65720000000000000000000000000000000000000000000000606482015260840161066a565b506001600160a01b031660009081526068602052604090205490565b610ca961150d565b610cb36000611567565b565b600054610100900460ff1615808015610cd55750600054600160ff909116105b80610cef5750303b158015610cef575060005460ff166001145b610d615760405162461bcd60e51b815260206004820152602e60248201527f496e697469616c697a61626c653a20636f6e747261637420697320616c72656160448201527f647920696e697469616c697a6564000000000000000000000000000000000000606482015260840161066a565b6000805460ff191660011790558015610d84576000805461ff0019166101001790555b610df86040518060400160405280600781526020017f4d79546f6b656e000000000000000000000000000000000000000000000000008152506040518060400160405280600381526020017f4d544b00000000000000000000000000000000000000000000000000000000008152506115c6565b610e0061163b565b610e086116a6565b610e1061163b565b8015610931576000805461ff0019169055604051600181527f7f26b83ff96e1f2b6a682f133852f6798a09c465da95921460cefb38474024989060200160405180910390a150565b60606066805461053090612708565b610ad9338383611719565b610e7c33836110b0565b610eee5760405162461bcd60e51b815260206004820152602d60248201527f4552433732313a2063616c6c6572206973206e6f7420746f6b656e206f776e6560448201527f72206f7220617070726f76656400000000000000000000000000000000000000606482015260840161066a565b610efa848484846117e7565b50505050565b606061051b82611870565b610f1361150d565b6000610f1f61015f5490565b9050610f3061015f80546001019055565b610f3a8382611978565b61070b8183611992565b610f4c61150d565b6001600160a01b038116610fc85760405162461bcd60e51b815260206004820152602660248201527f4f776e61626c653a206e6577206f776e657220697320746865207a65726f206160448201527f6464726573730000000000000000000000000000000000000000000000000000606482015260840161066a565b61093181611567565b6000818152606760205260409020546001600160a01b03166109315760405162461bcd60e51b815260206004820152601860248201527f4552433732313a20696e76616c696420746f6b656e2049440000000000000000604482015260640161066a565b6000818152606960205260409020805473ffffffffffffffffffffffffffffffffffffffff19166001600160a01b038416908117909155819061107782610ba2565b6001600160a01b03167f8c5be1e5ebec7d5bd14f71427d1e84f3dd0314c0f7b2291e5b200ac8c7c3b92560405160405180910390a45050565b6000806110bc83610ba2565b9050806001600160a01b0316846001600160a01b0316148061110357506001600160a01b038082166000908152606a602090815260408083209388168352929052205460ff165b806111275750836001600160a01b031661111c846105b3565b6001600160a01b0316145b949350505050565b826001600160a01b031661114282610ba2565b6001600160a01b0316146111be5760405162461bcd60e51b815260206004820152602560248201527f4552433732313a207472616e736665722066726f6d20696e636f72726563742060448201527f6f776e6572000000000000000000000000000000000000000000000000000000606482015260840161066a565b6001600160a01b0382166112395760405162461bcd60e51b8152602060048201526024808201527f4552433732313a207472616e7366657220746f20746865207a65726f2061646460448201527f7265737300000000000000000000000000000000000000000000000000000000606482015260840161066a565b826001600160a01b031661124c82610ba2565b6001600160a01b0316146112c85760405162461bcd60e51b815260206004820152602560248201527f4552433732313a207472616e736665722066726f6d20696e636f72726563742060448201527f6f776e6572000000000000000000000000000000000000000000000000000000606482015260840161066a565b6000818152606960209081526040808320805473ffffffffffffffffffffffffffffffffffffffff199081169091556001600160a01b0387811680865260688552838620805460001901905590871680865283862080546001019055868652606790945282852080549092168417909155905184937fddf252ad1be2c89b69c2b068fc378daa952ba7f163c4a11628f55a4df523b3ef91a4505050565b61093161150d565b7f4910fdfa16fed3260ed0e7147f7cc6da11a60208b5b9406d12a635614ffd91435460ff16156113a05761070b83611a34565b826001600160a01b03166352d1902d6040518163ffffffff1660e01b8152600401602060405180830381865afa9250505080156113fa575060408051601f3d908101601f191682019092526113f79181019061275b565b60015b61146c5760405162461bcd60e51b815260206004820152602e60248201527f45524331393637557067726164653a206e657720696d706c656d656e7461746960448201527f6f6e206973206e6f742055555053000000000000000000000000000000000000606482015260840161066a565b7f360894a13ba1a3210667c828492db98dca3e2076cc3735a920a3ca505d382bbc81146115015760405162461bcd60e51b815260206004820152602960248201527f45524331393637557067726164653a20756e737570706f727465642070726f7860448201527f6961626c65555549440000000000000000000000000000000000000000000000606482015260840161066a565b5061070b838383611aff565b60c9546001600160a01b03163314610cb35760405162461bcd60e51b815260206004820181905260248201527f4f776e61626c653a2063616c6c6572206973206e6f7420746865206f776e6572604482015260640161066a565b60c980546001600160a01b0383811673ffffffffffffffffffffffffffffffffffffffff19831681179093556040519116919082907f8be0079c531659141344cd1fd0a4f28419497f9722a3daafe3b4186f6b6457e090600090a35050565b600054610100900460ff166116315760405162461bcd60e51b815260206004820152602b60248201527f496e697469616c697a61626c653a20636f6e7472616374206973206e6f74206960448201526a6e697469616c697a696e6760a81b606482015260840161066a565b610ad98282611b24565b600054610100900460ff16610cb35760405162461bcd60e51b815260206004820152602b60248201527f496e697469616c697a61626c653a20636f6e7472616374206973206e6f74206960448201526a6e697469616c697a696e6760a81b606482015260840161066a565b600054610100900460ff166117115760405162461bcd60e51b815260206004820152602b60248201527f496e697469616c697a61626c653a20636f6e7472616374206973206e6f74206960448201526a6e697469616c697a696e6760a81b606482015260840161066a565b610cb3611ba8565b816001600160a01b0316836001600160a01b03160361177a5760405162461bcd60e51b815260206004820152601960248201527f4552433732313a20617070726f766520746f2063616c6c657200000000000000604482015260640161066a565b6001600160a01b038381166000818152606a6020908152604080832094871680845294825291829020805460ff191686151590811790915591519182527f17307eab39ab6107e8899845ad3d59bd9653f200f220920489ca2b5937696c31910160405180910390a3505050565b6117f284848461112f565b6117fe84848484611c1c565b610efa5760405162461bcd60e51b815260206004820152603260248201527f4552433732313a207472616e7366657220746f206e6f6e20455243373231526560448201527f63656976657220696d706c656d656e7465720000000000000000000000000000606482015260840161066a565b606061187b82610fd1565b6000828152609760205260408120805461189490612708565b80601f01602080910402602001604051908101604052809291908181526020018280546118c090612708565b801561190d5780601f106118e25761010080835404028352916020019161190d565b820191906000526020600020905b8154815290600101906020018083116118f057829003601f168201915b50505050509050600061192b60408051602081019091526000815290565b9050805160000361193d575092915050565b81511561196f578082604051602001611957929190612774565b60405160208183030381529060405292505050919050565b61112784611dbd565b610ad9828260405180602001604052806000815250611e31565b6000828152606760205260409020546001600160a01b0316611a1c5760405162461bcd60e51b815260206004820152602e60248201527f45524337323155524953746f726167653a2055524920736574206f66206e6f6e60448201527f6578697374656e7420746f6b656e000000000000000000000000000000000000606482015260840161066a565b600082815260976020526040902061070b82826127f1565b6001600160a01b0381163b611ab15760405162461bcd60e51b815260206004820152602d60248201527f455243313936373a206e657720696d706c656d656e746174696f6e206973206e60448201527f6f74206120636f6e747261637400000000000000000000000000000000000000606482015260840161066a565b7f360894a13ba1a3210667c828492db98dca3e2076cc3735a920a3ca505d382bbc805473ffffffffffffffffffffffffffffffffffffffff19166001600160a01b0392909216919091179055565b611b0883611eba565b600082511180611b155750805b1561070b57610efa8383611efa565b600054610100900460ff16611b8f5760405162461bcd60e51b815260206004820152602b60248201527f496e697469616c697a61626c653a20636f6e7472616374206973206e6f74206960448201526a6e697469616c697a696e6760a81b606482015260840161066a565b6065611b9b83826127f1565b50606661070b82826127f1565b600054610100900460ff16611c135760405162461bcd60e51b815260206004820152602b60248201527f496e697469616c697a61626c653a20636f6e7472616374206973206e6f74206960448201526a6e697469616c697a696e6760a81b606482015260840161066a565b610cb333611567565b60006001600160a01b0384163b15611db2576040517f150b7a020000000000000000000000000000000000000000000000000000000081526001600160a01b0385169063150b7a0290611c799033908990889088906004016128b1565b6020604051808303816000875af1925050508015611cb4575060408051601f3d908101601f19168201909252611cb1918101906128ed565b60015b611d67573d808015611ce2576040519150601f19603f3d011682016040523d82523d6000602084013e611ce7565b606091505b508051600003611d5f5760405162461bcd60e51b815260206004820152603260248201527f4552433732313a207472616e7366657220746f206e6f6e20455243373231526560448201527f63656976657220696d706c656d656e7465720000000000000000000000000000606482015260840161066a565b805181602001fd5b7fffffffff00000000000000000000000000000000000000000000000000000000167f150b7a0200000000000000000000000000000000000000000000000000000000149050611127565b506001949350505050565b6060611dc882610fd1565b6000611ddf60408051602081019091526000815290565b90506000815111611dff5760405180602001604052806000815250611e2a565b80611e0984612005565b604051602001611e1a929190612774565b6040516020818303038152906040525b9392505050565b611e3b83836120a5565b611e486000848484611c1c565b61070b5760405162461bcd60e51b815260206004820152603260248201527f4552433732313a207472616e7366657220746f206e6f6e20455243373231526560448201527f63656976657220696d706c656d656e7465720000000000000000000000000000606482015260840161066a565b611ec381611a34565b6040516001600160a01b038216907fbc7cd75a20ee27fd9adebab32041f755214dbc6bffa90cc0225b39da2e5c2d3b90600090a250565b60606001600160a01b0383163b611f795760405162461bcd60e51b815260206004820152602660248201527f416464726573733a2064656c65676174652063616c6c20746f206e6f6e2d636f60448201527f6e74726163740000000000000000000000000000000000000000000000000000606482015260840161066a565b600080846001600160a01b031684604051611f94919061290a565b600060405180830381855af49150503d8060008114611fcf576040519150601f19603f3d011682016040523d82523d6000602084013e611fd4565b606091505b5091509150611ffc82826040518060600160405280602781526020016129276027913961223d565b95945050505050565b6060600061201283612256565b600101905060008167ffffffffffffffff811115612032576120326124c6565b6040519080825280601f01601f19166020018201604052801561205c576020820181803683370190505b5090508181016020015b600019017f3031323334353637383961626364656600000000000000000000000000000000600a86061a8153600a850494508461206657509392505050565b6001600160a01b0382166120fb5760405162461bcd60e51b815260206004820181905260248201527f4552433732313a206d696e7420746f20746865207a65726f2061646472657373604482015260640161066a565b6000818152606760205260409020546001600160a01b0316156121605760405162461bcd60e51b815260206004820152601c60248201527f4552433732313a20746f6b656e20616c7265616479206d696e74656400000000604482015260640161066a565b6000818152606760205260409020546001600160a01b0316156121c55760405162461bcd60e51b815260206004820152601c60248201527f4552433732313a20746f6b656e20616c7265616479206d696e74656400000000604482015260640161066a565b6001600160a01b0382166000818152606860209081526040808320805460010190558483526067909152808220805473ffffffffffffffffffffffffffffffffffffffff19168417905551839291907fddf252ad1be2c89b69c2b068fc378daa952ba7f163c4a11628f55a4df523b3ef908290a45050565b6060831561224c575081611e2a565b611e2a8383612338565b6000807a184f03e93ff9f4daa797ed6e38ed64bf6a1f010000000000000000831061229f577a184f03e93ff9f4daa797ed6e38ed64bf6a1f010000000000000000830492506040015b6d04ee2d6d415b85acef810000000083106122cb576d04ee2d6d415b85acef8100000000830492506020015b662386f26fc1000083106122e957662386f26fc10000830492506010015b6305f5e1008310612301576305f5e100830492506008015b612710831061231557612710830492506004015b60648310612327576064830492506002015b600a831061051b5760010192915050565b8151156123485781518083602001fd5b8060405162461bcd60e51b815260040161066a91906123fd565b7fffffffff000000000000000000000000000000000000000000000000000000008116811461093157600080fd5b6000602082840312156123a257600080fd5b8135611e2a81612362565b60005b838110156123c85781810151838201526020016123b0565b50506000910152565b600081518084526123e98160208601602086016123ad565b601f01601f19169290920160200192915050565b602081526000611e2a60208301846123d1565b60006020828403121561242257600080fd5b5035919050565b80356001600160a01b038116811461244057600080fd5b919050565b6000806040838503121561245857600080fd5b61246183612429565b946020939093013593505050565b60008060006060848603121561248457600080fd5b61248d84612429565b925061249b60208501612429565b9150604084013590509250925092565b6000602082840312156124bd57600080fd5b611e2a82612429565b7f4e487b7100000000000000000000000000000000000000000000000000000000600052604160045260246000fd5b600067ffffffffffffffff80841115612510576125106124c6565b604051601f8501601f19908116603f01168101908282118183101715612538576125386124c6565b8160405280935085815286868601111561255157600080fd5b858560208301376000602087830101525050509392505050565b600082601f83011261257c57600080fd5b611e2a838335602085016124f5565b6000806040838503121561259e57600080fd5b6125a783612429565b9150602083013567ffffffffffffffff8111156125c357600080fd5b6125cf8582860161256b565b9150509250929050565b600080604083850312156125ec57600080fd5b6125f583612429565b91506020830135801515811461260a57600080fd5b809150509250929050565b6000806000806080858703121561262b57600080fd5b61263485612429565b935061264260208601612429565b925060408501359150606085013567ffffffffffffffff81111561266557600080fd5b6126718782880161256b565b91505092959194509250565b6000806040838503121561269057600080fd5b61269983612429565b9150602083013567ffffffffffffffff8111156126b557600080fd5b8301601f810185136126c657600080fd5b6125cf858235602084016124f5565b600080604083850312156126e857600080fd5b6126f183612429565b91506126ff60208401612429565b90509250929050565b600181811c9082168061271c57607f821691505b602082108103612755577f4e487b7100000000000000000000000000000000000000000000000000000000600052602260045260246000fd5b50919050565b60006020828403121561276d57600080fd5b5051919050565b600083516127868184602088016123ad565b83519083019061279a8183602088016123ad565b01949350505050565b601f82111561070b57600081815260208120601f850160051c810160208610156127ca5750805b601f850160051c820191505b818110156127e9578281556001016127d6565b505050505050565b815167ffffffffffffffff81111561280b5761280b6124c6565b61281f816128198454612708565b846127a3565b602080601f831160018114612854576000841561283c5750858301515b600019600386901b1c1916600185901b1785556127e9565b600085815260208120601f198616915b8281101561288357888601518255948401946001909101908401612864565b50858210156128a15787850151600019600388901b60f8161c191681555b5050505050600190811b01905550565b60006001600160a01b038087168352808616602084015250836040830152608060608301526128e360808301846123d1565b9695505050505050565b6000602082840312156128ff57600080fd5b8151611e2a81612362565b6000825161291c8184602087016123ad565b919091019291505056fe416464726573733a206c6f772d6c6576656c2064656c65676174652063616c6c206661696c6564a26469706673582212202896e0bae4287b94274f87f3afcd232ffb8a95203566441c1eddb09b534e83c464736f6c63430008120033",
  "linkReferences": {},
  "deployedLinkReferences": {}
}